:020000040800F2
:10000000800C0020D5010008BD410008313B0008EC
:10001000B9410008E10F0008C14C000800000000D1
:10002000000000000000000000000000914B0008EC
:10003000ED12000800000000C1410008954B0008C7
:10004000EF010008EF010008EF010008EF010008D0
:10005000EF010008EF010008EF010008EF010008C0
:10006000EF010008EF010008EF010008EF010008B0
:10007000EF010008EF010008EF010008EF010008A0
:10008000EF010008EF010008EF010008EF01000890
:10009000EF010008EF010008EF010008EF01000880
:1000A000EF010008EF010008EF010008EF01000870
:1000B0009D4B0008EF010008EF010008EF01000868
:1000C000EF010008EF010008EF010008EF01000850
:1000D000EF010008B54C0008EF010008EF0100082F
:1000E000EF010008EF010008EF01000800F002F83E
:1000F00000F060F814A696E8000CB244B344DA4568
:1001000001D100F057F8BAE80F000FA696E83000CA
:10011000A5EB040504EB0607AAEB0704A7F101070A
:100120004FEA15154FEA3414A4F10104AC4201D38F
:1001300000F040F813F0010F18BFFB1A43F0010361
:1001400000F001F8DBE71847706F0000906F0000C7
:10015000103A24BF78C878C1FAD8520724BF30C8F3
:1001600030C144BF04680C60704700007047000055
:100170000023002400250026103A28BF78C1FBD8B0
:10018000520728BF30C148BF0B607047662906F090
:100190005183752900F05280002070471FB500F090
:1001A00091FD04000020002106F046F9E0601FBD2B
:1001B00010B510BD00F086FE1146FFF7EFFF04F00A
:1001C00081FD00F0A4FE03B4FFF7F2FF03BC00F0D2
:1001D000A7FE00000948804709480047FEE7FEE700
:1001E000FEE7FEE7FEE7FEE7FEE7FEE7FEE7FEE7E7
:1001F00004480549054A064B70470000994B000822
:10020000ED00000880060020800C002080080020FF
:10021000800800200FB41CB5074B06AA7B44694632
:100220000090059800F0A5FC0020694600F0B4FCA1
:100230001CBC5DF814FB0000790900002DE9F041B9
:100240000646002410687529314616A510D0AFF374
:100250000080002802DA404213A507E031688A07CF
:1002600001D512A502E0490704D511A5012401E03A
:10027000AFF3008000210A2206F1240709E0B0FB59
:10028000F2FCB0FBF2F302FB1C003030785418464D
:10029000491C0028F3D123462A463046BDE8F041E8
:1002A00000F0FBB9000000002D0000002B00000052
:1002B000200000002DE9F0474FF0000A894604466F
:1002C000C0F820A02046E1688847002876D025287D
:1002D00006D0D4E901219047206A401C2062F1E752
:1002E000E168204600268847C4F81CA00546002780
:1002F000C4F818A02A2D09D0284606F095F838B37E
:1003000004EB8708303DC8F8185019E059F8041B71
:10031000204604EB87029161E1688847012F05467A
:1003200018D1E069002820DA26F020061DE0D8F870
:10033000180000EB800005EB40003038C8F81800CA
:100340002046E1688847054606F06EF80028EED1A1
:10035000012F0AD02E2D08D12046E16888477F1C46
:100360000546022F46F02006C4DBA069002803DA08
:10037000404246F00106A061F00701D026F01006C9
:100380006C2D0AD0682D08D04C2D39D06A2D35D06F
:10039000742D35D07A2D33D016E0E1682F462046F3
:1003A0008847B84205460AD16C2F27D04FF48060A9
:1003B000E168064320468847054605E027E06C2FA4
:1003C0001AD04FF4807006430DB3A5F141001928EF
:1003D00002D8203546F400664A4629462046266063
:1003E0004E46FFF7D3FE80B101280BD0F61D26F054
:1003F000070000F1080965E74020E4E78020D7E71F
:100400000020D5E706F104095CE7284661E7206A89
:10041000BDE8F08710B5431C02E010F8011B71B174
:100420008107FAD14FF0013202C88C1A8C4314EACA
:10043000C211F9D0C01A0A0603D0C01E10BDC01ADE
:1004400010BD0A0401D0801E10BD0902FCD0401E60
:1004500010BD032A40F2308010F0030C00F015802C
:1004600011F8013BBCF1020F624498BF11F801CBB7
:1004700000F8013B38BF11F8013BA2F1040298BF1C
:1004800000F801CB38BF00F8013B11F0030300F086
:100490008883083AC0F0088051F8043B083A51F8C4
:1004A00004CBA0E80810F5E7121D5CBF51F8043B2F
:1004B00040F8043BAFF30080D20724BF11F8013BA2
:1004C00011F801CB48BF11F8012B24BF00F8013B04
:1004D00000F801CB48BF00F8012B7047431A28BF32
:1004E0009A427FF6B6AF10441144032A40F22680A8
:1004F00010F0030F1EBF11F8013D521E00F8013D20
:1005000010F0030F7FF4F6AF11F0030300F08E83B9
:10051000083AC0F00B8051F8043D083A51F804CD78
:1005200040F8043D40F804CDFFF7F3BF121D5CBF57
:1005300051F8043D40F8043DAFF30080D20724BFDA
:1005400011F8013D11F801CD48BF11F8012C24BF6D
:1005500000F8013D00F801CD48BF00F8012C7047BC
:1005600002F0FF0343EA032242EA024200F002B82B
:100570004FF0000200B5134694469646203922BF3C
:10058000A0E80C50A0E80C50B1F12001BFF4F7AF87
:10059000090728BFA0E80C5048BF0CC05DF804EB69
:1005A000890028BF40F8042B08BF704748BF20F8D7
:1005B000022B11F0804F18BF00F8012B704710B5C7
:1005C000044610F0030F08BF11F0030F40F0158030
:1005D0004FF0013E121FC0F20E8051F8043BA3EB16
:1005E0000E0C2CEA030C1CEACE1C08BF40F8043B9E
:1005F000F0D0A1F1040102F10402521E08DB11F84F
:10060000013B00F8013B002BF7D1114600F038FB0D
:10061000204610BD4FF0013C50F8042B51F8043B2C
:100620009A4221D1A2EB0C03934313EACC1317D1C6
:1006300050F8042B51F8043B9A4215D1A2EB0C035D
:10064000934313EACC130BD150F8042B51F8043B1D
:100650009A4209D1A2EB0C03934313EACC13DBD0EB
:100660004FF00000704700BFD01A01BAB1FA81F113
:1006700001F0180122FA01F0CB40DBB2C0B2C01A7F
:10068000C1F120012CFA01F3D11A914311EAC311EF
:10069000E6D170477047704770472DE9F0470D4627
:1006A00099469246044600F124080168880604D55C
:1006B000E06921F01001216000E00120A84201DD85
:1006C000471B00E00027A1697A1902EB0900081A0C
:1006D000A0612078C00602D42046AFF30080002637
:1006E00008E0D4E901211AF806009047206A401C6E
:1006F000761C20624E45F4DB2078C0060AD52046E1
:10070000AFF3008006E0D4E9012130209047206A51
:10071000401C2062381EA7F10107F4DC07E0D4E991
:10072000012118F805009047206A401C2062281E0D
:10073000A5F10105F3DC2046AFF300802078000628
:1007400002D50220BDE8F0870120FBE72DE9FF4F2D
:100750000C461E464FF0FF378BB0D2E90001DDF8A2
:1007600060800A908A46C1F30A5505B93D460021CA
:1007700008464FF00000BAF1000F00F4400005DA1F
:1007800000EB80004FF4400101EA50004FEA90591D
:10079000B9F1010F00DDB9460A9850EA4A000ED0BF
:1007A00044F61050A5F2FF3545432F14B8F1000F61
:1007B0001ED07542291E1EDDC9F100021CE0B8F1F1
:1007C000010F4FF0000001D0302103E0F24305E0BB
:1007D0002154401CB042FBDB304600220021215452
:1007E0000B99C1F80880C1E900200FB0BDE8F08F77
:1007F000BD1B6D1CDEE74A4600DA694206A800F020
:10080000EBFA06AB93E8070003AB83E8070050461A
:100810000A9905F02DFA8DE80700A0F500501F3861
:1008200000900398002D0ADD42F21F014A46084459
:10083000002303A90390684605F096FC09E0A0F5A3
:1008400000504A461F38002303A90390684605F06C
:10085000A0FC8DE807000004000C03D04FF0FF302F
:10086000410800E01046B8F1000F03D000220092CA
:1008700015461EE0751E05D400F028FA3032625588
:100880006D1EF9D5B3460122084302D000227F1C19
:1008900004E02078302801D100227F1E002A099729
:1008A00084D01DE0112D07DA00F010FA30326255C5
:1008B0006D1C50EA0102F5D1084302D00098C8B17E
:1008C0000EE00021681E05E0235C625C6354225444
:1008D000401E491C8142F7DBAB46A81B401E099015
:1008E000002004F80B000B98099AC0F80880C0E9B2
:1008F000002B7AE711264FF0000857E72DE9F04F5B
:1009000088460446D21D22F0070191B0D1E90001CA
:10091000CDE90A0105F074FD02460B98C00F01D025
:100920002D2007E02068810701D52B2002E020213F
:1009300001EAC000032A099001D0072A05DB03461B
:100940004146204600F008FA0BE12078800601D5E8
:10095000E06900E00620B8F1650F814606D0B8F1E5
:10096000660F18D0B8F1670F70D131E00020B9F1EF
:10097000110F009001DB112301E009F101030AAA24
:1009800001A90CA8FFF7E2FEDDE90C70002609F1D1
:100990000105834647E001204B4600904FF0004799
:1009A0000AAA01A90CA8FFF7D1FEDDE90DB00C9948
:1009B0005D46002610B909F101000D18B9EB0500DC
:1009C00003D4C0F1FF3609F10105A5EB09002BE0C6
:1009D000B9F1010F01DA4FF001090020B9F1110F4F
:1009E0000090484601DD112300E003460AAA01A950
:1009F0000CA8FFF7ABFEDDE90C704D4600268346E0
:100A0000207800070AD4AB4500DA5D4601A8012D25
:100A100004DD411911F8011C302907D04F4502DAD5
:100A200017F1040F04DA012082460FE06D1EEEE795
:100A3000002F02DCED1B3E4403E0781CA84200DDE1
:100A40007D1CB81B00F1010A4FF000472078000719
:100A500003D4AA4501DB4FF0FF3A0021B7F1004F64
:100A60000DF143088DF8431024D002202B23002FD2
:100A700001DA7F422D230A21021EA0F1010000DCD1
:100A80005FB197FBF1FC97FBF1F201FB1C7C174671
:100A90000CF1300C08F801CDEEE7A8F1010003706D
:100AA0002188090501D5452100E06521A0F1010853
:100AB00000F8011C09980FA9A1EB0807FF1D00B160
:100AC0000120411901EBEA70A1693844081A401E5F
:100AD000A0612078C00602D42046AFF300800998B8
:100AE00028B1D4E901219047206A401C2062207877
:100AF000C00622D52046AFF300801EE0002E04DBA6
:100B0000B34502DD01A8805D00E03020D4E9012179
:100B10009047206A401C2062761CAAF101005FEA1F
:100B2000000A0AD100F0CEF8C0680168405CD4E940
:100B300001219047206A401C2062281EA5F1010572
:100B4000DCDC07E0D4E9012118F8010B9047206AAA
:100B5000401C2062381EA7F10107F3DC2046AFF3EA
:100B60000080032011B041E601694A1C0261087847
:100B7000704700B58FB0CDE90131002105910549DD
:100B80007944CDE9031011466846FFF793FB0FB097
:100B900000BD0000E5FFFFFF0A6802F8010B0A60D4
:100BA000704710B5203AC0F00B80B1E81850A0E8AB
:100BB0001850B1E81850A0E81850203ABFF4F5AF2B
:100BC0005FEA027C24BFB1E81850A0E8185044BF87
:100BD00018C918C0BDE810405FEA827C24BF51F8F4
:100BE000043B40F8043B08BF7047D20728BF31F8E8
:100BF000023B48BF11F8012B28BF20F8023B48BF39
:100C000000F8012B7047431A28BF9A427FF6C9AFFC
:100C10001044114410F0030F1EBF11F8013D521E85
:100C200000F8013D10F0030F7FF4F6AF103AC0F06A
:100C30000A8010B531E9185020E91850103ABFF475
:100C4000F9AFBDE81040530724BF31E9081020E98F
:100C5000081044BF51F8043D40F8043D12F0030F62
:100C600008BF7047D20728BF31F8023D48BF11F8CE
:100C7000012C28BF20F8023D48BF00F8012C704726
:100C80004FF000020429C0F0128010F0030C3FF472
:100C900071ACCCF1040CBCF1020F18BF00F8012BB1
:100CA000A8BF20F8022BA1EB0C01FFF763BC5FEAA1
:100CB000C17C24BF00F8012B00F8012B48BF00F8CD
:100CC000012B7047004870474000002030B5B0F15C
:100CD0000A0271F100034FEA900E4EEA817EB0EBFA
:100CE0000E0061EB91014FEA101E4EEA017E10EBFF
:100CF0000E0041EB11114FEA102E4EEA016E10EB7F
:100D00000E0041EB11214FEA104E4EEA014E10EB5E
:100D10000E0041EB1141401841F100014FEAD000B3
:100D200040EA41704FEAD1014FEA810444EA9074ED
:100D300010EB800544EB01046D1944EB0404521BD5
:100D4000A3414FF0000348BF0A3200D530BD401C1C
:100D500041F1000130BD00002DE9F0411F4604467D
:100D600003260168072A01F4006004DB08B116A518
:100D700005E016A503E008B115A500E015A521F0D2
:100D800010002060A069C01EA0610FB1401EA061CC
:100D90002046AFF300804FB1D4E901213846904797
:100DA000206A401C2062C01C206206E0206AFAE72C
:100DB000D4E9012115F8010B9047761EF8D22046A0
:100DC000AFF30080BDE8F0814E414E006E616E00D1
:100DD000494E4600696E66002DE9F0478146164689
:100DE0008AB0354878440DC88DE80D003248784403
:100DF000801C03AC0DC884E80D0041F69B3008440C
:100E0000372190FBF1F290FBF1F5A5F1800501FB94
:100E100012041B3C02D56442012000E00020DFF8F0
:100E200098A080460027FA44AAF1BE0A0EE0E00727
:100E30000AD03246684607EB470101230AEB8101DD
:100E400005F0A7F98DE8070064107F1C002CEED197
:100E5000194F7F44AE3F19E0E80715D007EB0410A7
:100E60000DF1180A90E80E008AE80E00C068F04202
:100E700001D1981908903246012306A903A805F06C
:100E800088F903AB83E807006D10641C002DE3D1E3
:100E90004FF0010332466946B8F1000F03A802D0B3
:100EA00005F062F901E005F074F9C9E90001C9F83B
:100EB00008200AB0BDE8F087CC5A0000004870470F
:100EC000200000207546FFF7F9FFAE460500694691
:100ED000534620F00700854618B020B5FFF788F983
:100EE000BDE820404FF000064FF000074FF000082B
:100EF0004FF0000BAC46ACE8C009ACE8C009ACE868
:100F0000C009ACE8C00921F007018D46704710B553
:100F10000446AFF300802046BDE81040FFF753B908
:100F200001491820ABBEFEE7260002007047000012
:100F3000B0B582B004460020019021688A68D207CB
:100F40004BD1886840F00100886040F21800C2F27E
:100F5000000000684DF68361C4F21B31A0FB010163
:100F6000880C01900198A0B1019801380190019876
:100F700078B1019801380190019850B10198013879
:100F80000190019828B1019801380190019800283A
:100F9000EAD100F07FFE21688968C9071CD10546A7
:100FA00003E000BF8068C00716D100F073FE411B4C
:100FB00020680329F6D38168C907F3D1A06A40F0FD
:100FC0001000A062E06A40F00100E062002084F8B6
:100FD0002400012002B0B0BD002002B0B0BD00006E
:100FE000FEE7000070B50C46054600F0A1F878B3A6
:100FF00028462146CC2200F0FBF828462146442210
:1010000000F0F6F840F2EE2000F01CFD28462146E4
:1010100000F08EF828462146CC2200F0E9F8284658
:101020002146BE2200F0E4F82846214600F014F8DC
:1010300006462846214600F00FF846EA002000B296
:1010400005F0ACFA4FF0765105F028FB70BD00BFFB
:101050000020CCF2FE2070BD2DE9F04F85B040F2AB
:10106000C8560C46054600270DF1040AC2F20006D8
:101070004FF0010B4FF000094FF0000807E000BFF0
:1010800009F10109B9F1080F48EA00084AD0112016
:10109000029003200490284651460397019400F0E3
:1010A000E5FC28462146002200F0EEFD306847624C
:1010B000416A012908D8416A012905D8416A0129F4
:1010C00002D8416A0229F3D328465146CDE90147A7
:1010D000CDE9037700F0CAFC30684762416A09290C
:1010E00008D8416A092905D8416A092902D8416A04
:1010F0000A29F3D32846214600F0C0FD31680028B4
:1011000018BF0BFA09F04F624A6A312AB8D84A6A06
:10111000312AB5D84A6A312AB2D84A6A322AF3D378
:10112000AEE700BF5FFA88F005B0BDE8F08F0000C1
:10113000F0B585B005461120029003200C4600272B
:101140000191049001A92846039700F08FFC2846DE
:101150002146002200F098FD40F2C856C2F2000677
:1011600030684762416A49090E290BD8416A49092A
:101170000E2907D8416A49090E2903D8416AB1F5F9
:10118000F07FEFD3002701A92846CDE90147CDE93B
:10119000037700F06BFC3068476200BF416A4F295B
:1011A00008D8416A4F2905D8416A4F2902D8416AB7
:1011B0005029F3D32846214600F060FD3168002213
:1011C0004A6200BF4A6A1209182A0BD84A6A1209F1
:1011D000182A07D84A6A1209182A03D84A6AB2F5A7
:1011E000C87FEFD3B0FA80F0400905B0F0BD000031
:1011F0002DE9F04F85B040F2C85B90460D4606469B
:1012000000244FF0030A01AFC2F2000B4FF00009B7
:1012100005E000BF09F10109B9F1080F62D0112002
:1012200002903046394603940195CDF810A000F0A5
:101230001DFC30462946002200F026FDDBF80000A8
:1012400028FA09F1C907446226D000BF416A012982
:1012500008D8416A012905D8416A012902D8416AA2
:101260000229F3D330463946CDE90154CDE9034490
:1012700000F0FCFBDBF80000446200BF416A3B2940
:10128000C8D8416A3B29C5D8416A3B29C2D8416ABE
:101290003C29F3D3BEE700BF416A3B2908D8416A25
:1012A0003B2905D8416A3B2902D8416A3C29F3D33E
:1012B00030463946CDE90154CDE9034400F0D6FB70
:1012C000DBF80000446200BF416A0129A2D8416AEC
:1012D00001299FD8416A01299CD8416A0229F3D388
:1012E00098E700BF05B0BDE8F08F00007047000030
:1012F000EFF3108072B600BFFEE7000070B581B05A
:101300000022009290F82420012A03D102210846ED
:1013100001B070BD4A680123062A02EB820E80F8F4
:10132000243007D8D0F800C06FF004030CF1340665
:101330000CE000BFD0F800C00C2A87BF0CF12C06CF
:101340006FF040030CF130066FF022030EEB030246
:101350001F23346803FA02F50B6824EA050503FA33
:1013600002F22A433260092B03EB43021AD9DCF85C
:101370000C601E3A072589689540AE43914023F0E2
:1013800001023143102ACCF80C1015D142F2004171
:10139000C4F201018C4517D0816A41F020018162BD
:1013A00001210AE0DCF81030072689689640B34333
:1013B00091401943CCF810100021002280F824201D
:1013C000084601B070BD00BF89680902F4D4DCF89A
:1013D0000810102B41F40001CCF80810ECD140F2B9
:1013E0001801C2F2000109684DF68362C4F21B3293
:1013F000A1FB0212910C01EB8101490000910099BF
:101400000029D9D000990139009100990029D3D041
:1014100000990139009100990029CDD00099013936
:10142000009100990029C7D00099013900910099D5
:1014300000294FF00001E5D1BFE700000068C06C53
:1014400070470000002804BF01207047B0B5044673
:10145000806A28B121688868C0070CD115E000BFF8
:101460000020E06284F82400204600F097F821680C
:101470008868C00709D0886820F00100886000F003
:1014800009FC21688A68D20726D1A06AC0063AD42E
:10149000A06A41F2021290430230A062E069D4E9EE
:1014A000013240EA030C531EB3FA83F35D0913467D
:1014B000B2F5807F18BF2B02207D257B01284CEAE6
:1014C00045002CD135B3A56A45F02005A562E56A33
:1014D00045F00105E56222E0054602E08868C007A4
:1014E000D3D000F0D7FB401B21680328F6D38868CF
:1014F000C007F3D0A06A40F01000A062E06A40F09C
:101500000100E062A06AA06A40F01000A062012021
:10151000B0BD00BFA56903EB4533A3F5C0534D68CB
:10152000B2F5807F25F4694543EA05034B608B687B
:101530004FF2FD75CFF6E17503EA050343EA0003B8
:101540008B6001D0012A07D122690023CFF6F07306
:1015500003EB025201E000BF0022CB6A23F47003C8
:101560001A43CA62896840F6FE62CFF61F721140C4
:10157000814207D10020E062A16A012262F30101E9
:10158000A162B0BDA06A40F0100020F00200A0628D
:10159000E06A40F00100E0620120B0BD80B586B095
:1015A000014640F60000C4F20100096800F5E0526F
:1015B00091424FF00001CDE90411CDE9021101D0B3
:1015C00006B080BD41F21801C4F202010A6842F47B
:1015D00000720A600A6802F400720192019A0A68B5
:1015E00042F004020A60096801F0040101910199C6
:1015F000802102910321039102A900F037FA06B07D
:1016000080BD00002DE9F04182B000270D46044660
:10161000019700F03FFB21688A68D20544D4064652
:101620004868C00503D4C86A10F4700F46D040F271
:101630001800C2F20000076842F292480220C1F28C
:10164000492800F0C3FE216844F624130A69B7FB59
:10165000F0F0C2F292431A4206D1CA6844F624134B
:10166000C0F292031A425BD00A6912EA080F07D14E
:10167000CA6842F29243C0F249031A4200F0C080A5
:101680000A6949F24923C0F224031A424FF0FC02CE
:1016900054D1CF681F4208BF5422019B02FB00F7C0
:1016A000BB4250D3C3E000BFA06A40F02000A0625C
:1016B00084F82470012002B0BDE8F081086880073A
:1016C00000F1B580681C00F0A880FDB908688007AB
:1016D00070D50868800700F1AA800868800769D57E
:1016E0000868800700F1A3800868800762D5086851
:1016F000800700F19C80086880075BD50868800738
:10170000E4D594E00868800700F1918000F0C2FA07
:10171000801B2168A842F5D908688007F2D449E007
:101720000A6912EA080F4FF0290207D1CB6842F28A
:101730009247C0F249073B4208BF1422019B02FBBB
:1017400000F7BB4273D2681C52D05DBB0198B8420F
:1017500030D30198013001900198B84267D20198C6
:10176000B84227D30198013001900198B8425ED267
:101770000198B8421ED30198013001900198B842F7
:1017800055D20198B84215D30198013001900198C3
:10179000B842DBD34BE000BF0198013001900198C3
:1017A000B84235D200F076FA801BA842F4D90198ED
:1017B000B842F1D2A06A40F00400A062002084F890
:1017C0002400032002B0BDE8F08100BF0198013081
:1017D00001900198B8422AD20198013001900198F5
:1017E000B84224D20198013001900198B8421ED22B
:1017F0000198013001900198B842E7D317E000BF8B
:101800005422019B02FB00F7BB429CD30FE000BFB8
:1018100021680CE00868800709D40868800706D4AE
:10182000086880075CBF08685FEA8070F2D56FF0D7
:1018300012000860A06A40F40070A062886800F49A
:101840006020B0F5602F01D1207B18B1002002B0DC
:10185000BDE8F081A06A20F48070A062A06AC00494
:10186000F4D4A06A40F00100A062002002B0BDE8FC
:10187000F081000010B5044690F82400012804BF50
:10188000022010BD012084F824002046FFF750FB01
:1018900020B1002084F82400012010BD42F2044C45
:1018A0002068A16AC4F2010C40F2013291430CF5A8
:1018B0007F7201F580719042A16229D0A16A21F462
:1018C0008011A1624168490504D5A16A012363F32F
:1018D0000D31A162A16A0023C9044FF0000144BF89
:1018E000E16A21F00601E1626FF0020184F8243020
:1018F0000160816801F46021B1F5602F1BD1904235
:1019000014D0816841F4A0018160002010BD00BFA7
:10191000DCF8001011F4702FD0D0A16A41F48011CE
:10192000A162DCF800104905CFD4D3E7DCF8001041
:1019300011F4702FE5D0816841F48011816000209E
:1019400010BD0000014690F82100022816D1086859
:10195000D1E90FC3026822F00E020260026822F091
:1019600001020260012000FA03F2CCF8042081F8A1
:1019700021000020002281F8202070470420886385
:101980000120002281F820207047000090F82110EB
:10199000022923D1026840F2040C1168C4F2020C3F
:1019A00021F00E01116013682F21C4F202018A4256
:1019B00023F00103136015DD3023C4F202039A42C1
:1019C0001CD04423C4F202039A421BD05823C4F211
:1019D00002039A421CD14FF4803321E00421816339
:1019E000012070470823C4F202039A420ED01C2340
:1019F000C4F202039A420BD1102311E04FF480731A
:101A00000EE000BF4FF480530AE000BF012307E05F
:101A10000CF168014FF080738A4208BF4FF48013C5
:101A20000121CCF8003080F82110416B0022002900
:101A300080F8202004BF0020704780B58847002030
:101A400080BD0000B0B5044600F024F9054640F220
:101A50000800C2F200000078611C18BF044400BFF7
:101A600000F018F9401BA042FAD3B0BD2DE9F04FA9
:101A700082B00E68002E00F0FD8041F20042C4F2F8
:101A80000102042340F2004E904208BF03234FF6A8
:101A9000FF7CC4F2010E009300240123C1F2100C5C
:101AA0004FF0000A4FF000094BE000BF41F2000286
:101AB000C4F20102009F904208BF022704F00C0309
:101AC0000F229A402BEA020207FA03F34FEA9A0523
:101AD0001A4346F825204E6840F20C45F202DEF823
:101AE000082054BF22EA080242EA0802C4F20105B3
:101AF000CEF808202A68B30254BF22EA080242EA5C
:101B000008022A60B303DEF8042054BF22EA080268
:101B100042EA0802F303CEF80420DEF800204FF07A
:101B2000010354BF22EA080242EA0802CEF800206C
:101B30000E680AF1010A36FA0AF204F1040400F010
:101B4000998003FA0AFB16EA0B08F1D04E68664545
:101B500012DC122E56D8DFE806F0350B4D495555EC
:101B6000555555555555555555555545510000BF79
:101B7000D1F80C9046E000BF4FF6FF72C1F221028F
:101B800096420FDC0022C1F2110296421AD00022C6
:101B9000C1F21202964215D00022C1F221029642F1
:101BA00010D02FE00022C1F2220296420AD0002279
:101BB000C1F23102964205D00022C1F232029642B1
:101BC00020D100BF8A684AB1012A14BFC0F814B0FE
:101BD000C0F810B04FF0080914E000BF4FF004093E
:101BE00010E000BFCA6802F104090BE04FF00009E1
:101BF00008E000BFCA6802F1080903E0CA6802F100
:101C00000C0900BF02462646B8F5807F24BF043287
:101C1000203E17680F25B54027EA050509FA06F6A4
:101C200035431560CA79D2067FF582AF41F21803B9
:101C3000C4F202031A68AEF57E7642F001021A6021
:101C40001A6802F001020192019A2AF0030256F882
:101C500002B040F60002C4F20102904208D040F601
:101C60000042C4F2010290427FF420AF012725E731
:101C7000002723E702B0BDE8F08F0000806808402D
:101C800018BF012070470000002A08BF0904016145
:101C90007047000040F27860C2F2000000687047B0
:101CA000002804BF01207047F0B581B0044690F8C9
:101CB0003D0028B9002084F83C00204600F09AFA44
:101CC000242084F83D002068016821F001010160B2
:101CD000016841F400410160016821F400410160A4
:101CE00000F050FD636848F2A16CC0F2010C40F6B0
:101CF0000011C0F23D0163453CBF48F28041C0F293
:101D00001E01884202D2012001B0F0BD4DF6836170
:101D1000C4F21B31A0FB01122168970CD1F804E03A
:101D20004FF496762EF03F0545EA92454D60774395
:101D300048F638160D6AC0F24106A7FB067625F074
:101D40003F07634538BF960C721C3A430A62CA6962
:101D500048F2A0664CF6FF77C0F20106B34222EAD1
:101D600007020BD801385B00B0FBF3F001306FF3D2
:101D70001F30042898BF04201BE000BFA76801386B
:101D800057B119277B43B0FBF3F001306FF31F30DD
:101D900070B100F5804007E003EB4303B0FBF3F0C4
:101DA00001306FF31F3018B100F5004001E000BFB3
:101DB00001201043C8610868D4E9072320F0C0005F
:101DC000104318430860886848F2FF3204F10C079A
:101DD00090438CCF18431043A6698860C86820F0F0
:101DE000FF0038433043C860086840F001000860D5
:101DF00000202021206484F83D10206384F83E00F8
:101E000001B0F0BD2DE9F04F83B01E4692468846E2
:101E10000446FFF73FFF94F83D10202924D12168A4
:101E2000054600BF886980071AD5FFF733FF401BBE
:101E300021681A28F6D388698007F3D5002020216D
:101E4000206384F83D1084F83E00216C41F02001AD
:101E5000216484F83C00022003B0BDE8F08F00BF8D
:101E600094F83C00012803D1022003B0BDE8F08FB4
:101E70004FF0010984F83C900868C00703D1086856
:101E800040F0010008600868002720F40060086046
:101E9000242084F83D000020CFF6FF702764E06224
:101EA00008F0FE08BAF1010F88BFD1464FF0A00A32
:101EB0004FF0200B04E000BF01374F4500F0A28037
:101EC0000868002240F48070086020464FF001113D
:101ED0003346009501F08CFE2168002856D1C1F8E8
:101EE0001080FFF7D7FE21684B694A6994F83D508E
:101EF000A02D054605D013F0020008BF12F4806043
:101F00001AD084F83DB048690A68800742F400722C
:101F10000A6045D46FF48060486100BF886980071B
:101F2000CAD5FFF7B7FE401B21681A28F6D3886987
:101F30008007F3D54AE000BFB6B100BFFFF7AAFEA5
:101F4000401BB04288BF84F83DA021684A694869B7
:101F500094F83D30A02BD4D012F0020208BF10F448
:101F60008060EBD0CDE700BFFFF794FE84F83DA082
:101F700021684A69486994F83D30A02BC1D012F01D
:101F80000202BED110F48060EED0BAE70868C00546
:101F900044BF4FF400702064032003B0BDE8F08F0D
:101FA000002002904869029088690290029888692E
:101FB00001E000BF806980071AD5FFF76BFE411B67
:101FC00020681A29F6D381698907F3D500202021DA
:101FD000206384F83D1084F83E00216C41F020011C
:101FE000216484F83C00012003B0BDE8F08F00BFFD
:101FF000202084F83D00002084F83C0003B0BDE8B8
:10200000F08F00BF202084F83D00002084F83C00C1
:10201000012003B0BDE8F08F2DE9F04383B01E46E8
:10202000174689460446FFF735FE94F83D102029EF
:1020300024D10546206800BF816989071AD5FFF7BA
:1020400029FE411B20681A29F6D381698907F3D537
:1020500000202021206384F83D1084F83E00216C8C
:1020600041F02001216484F83C00022003B0BDE867
:10207000F08300BF94F83C10012903D1022003B083
:10208000BDE8F083012184F83C100168C90703D141
:10209000016841F001010160016840F2020821F489
:1020A00000610160212184F83D10102184F83E1068
:1020B0000021216467626685618DC0F20108218577
:1020C000A8F10211E162E16A0A9E11F5803F18BF92
:1020D00001291DD1016841F48071016020464FF053
:1020E000011100223346009501F082FD50B12068B5
:1020F0000068C00544BF4FF400702064012003B0A5
:10210000BDE8F0832069B0F5804F07D1FE2015E0CF
:102110000829DFD0216B1229DCD0DFE7062000EA96
:10212000D9102168F030086108F1060120463246D6
:102130002B4601F043FE0028E0D1FF20216800EA91
:10214000090008612046414632462B4601F036FE22
:102150000028D3D100200290206841690291806953
:102160000290029806E000BF204631462A4601F060
:10217000E1FC18BB208D68B3204631462A4601F0A9
:1021800089FED8B9606A2168024612F8013B0B61EA
:102190006262628D013A6285228D531E23854F69EA
:1021A0007F07E1D51B04DFD0437802300B6160620A
:1021B000608D01386085901E2085D5E7206C04284D
:1021C0009CD12068016841F400710160012003B0D6
:1021D000BDE8F0832068016841F4007101602020AF
:1021E00084F83D00002084F83E0084F83C0003B0F1
:1021F000BDE8F08310B586B0016845F20040C4F236
:10220000000081424FF00001CDE90411CDE9021137
:1022100002D006B010BD00BF41F21804C4F202049F
:10222000216800F5384041F008012160216801F083
:10223000080101910199C02102911221039103210A
:10224000059102A9FFF712FC606840F4001060607D
:10225000606800F400100190019806B010BD000005
:1022600040F2080040F27861C2F20000C2F20001C0
:1022700000780A68104408607047000080B542F298
:102280000000C4F20200016841F010010160032067
:1022900000F08CF80F2000F005F800F027F800207F
:1022A00080BD000070B540F20806C2F2000640F2A0
:1022B00018013278C2F200014FF47A730968B3FB57
:1022C000F2F20446B1FBF2F1084600F083FC0F2C59
:1022D0004FF0010508D838B94FF0FF3021460022F1
:1022E000002500F037F87460284670BD82B041F2D6
:1022F0001800C4F202000168022241F001010160ED
:10230000016801F0010101910199416841F080519A
:102310004160406800F08050009000980420C4F2B2
:102320000100016862F31A61016002B070470000A9
:10233000002848BF704700F01F01012202FA01F196
:102340001C2202EAD0004EF20012CEF200028150AE
:102350007047000010B54EF60C5CCEF2000CDCF8B5
:102360000030C3F3022E8EF00704042C28BF04248F
:10237000BEF103034FF0FF3E0EFA04F438BF002312
:10238000A14399400EFA03F39A43114300F00F0260
:1023900000F160430901043A03F5644362440028F4
:1023A00048BF02F10C03197010BD00004EF60C512D
:1023B000CEF200010A684FF6FF031A4060F30A22CA
:1023C00042F0806040F0FD7008607047012821D025
:1023D00002280DD0102808D141F20401C4F20201F4
:1023E0000A6851F8040CC00134D40020704700BFC3
:1023F00080B500F0DBF941F20401C4F20201096882
:102400000222C1F3813102EB4101B0FBF1F0BDE8E2
:102410008040704741F20400C4F20200C16940F2FA
:1024200002320A40B2F5817F04BF4FF4004070478A
:1024300001F44071B1F5407F18D0B1F5007F1CBFA9
:1024400000207047006A49F64041800701EAE070C9
:10245000704700BFC2F3834015A3185CD2030DD4AC
:1024600040F60012C0F23D02504313E050F8040C55
:102470004FF22441800301EAE07070470A6810A31C
:10248000C2F340429A5C41F20023C0F27A03B3FBEC
:10249000F2F250430968490248BF70474AF6AB213F
:1024A0004000CAF6AA21A0FB01014808704700BFFE
:1024B00002030405060708090A0B0C0D0E0F101085
:1024C000010200002DE9F04182B00446007841F29B
:1024D0001C06C007C4F202064AD030685FEAC00892
:1024E00008D4306840F080503060306800F0805090
:1024F0000190019847F20007C4F200073868C00550
:1025000012D4386840F480703860FFF7C3FB05468A
:102510003868C00508D4FFF7BDFB401B6428F7D915
:10252000032002B0BDE8F081706810F4407012D052
:10253000616801F4407188420DD0706840F24042F9
:10254000C4F24222012320F4407113600023C0072B
:102550001360716026D17068616820F44070084390
:10256000B8F1000F706003D4306820F08050306004
:102570002068810707D556F8181CA26821F440414D
:10258000114346F8181CC00607D556F8180CE16828
:1025900020F48000084346F8180C002002B0BDE883
:1025A000F08100BFFFF776FB054641F2883700BF98
:1025B00070688007CFD4FFF76DFB401BB8424FF027
:1025C0000300F5D9EAE70000002804BF01207047A6
:1025D0002DE9F04381B042F20008C4F2020804463B
:1025E000D8F800000D4600F0070081420CD9D8F859
:1025F000000020F007002843C8F80000D8F80000C9
:1026000000F00700A8426CD1206841F2040981075C
:10261000C4F2020917D5410705D5D9F8001041F4D5
:10262000E061C9F80010010705D5D9F8001041F4A0
:102630006051C9F80010D9F80010A26821F0F0012B
:102640001143C9F80010C00742D1D8F8000000F0CB
:10265000070085420CD2D8F8000020F0070028437C
:10266000C8F80000D8F8000000F00700A84238D1F0
:102670002068410707D5D9F80010E26821F4E0612D
:102680001143C9F80010000708D5D9F800002169E6
:1026900020F4605040EAC100C9F80000D9F80020D9
:1026A00002F00C00082841F20020C0F27A004DD15F
:1026B00047F25203C2F38341C0F60003595CD203D0
:1026C00038D440F60010C0F23D0048433EE000BF61
:1026D000606859F8041C022808D0012826D1890313
:1026E00006D4012001B0BDE8F08300BF8901F8D510
:1026F000D9F8001021F003010843C9F80000FFF7E2
:10270000C9FA064641F28837D9F80000616800F03E
:102710000C00B0EB810F98D0FFF7BCFA801BB842D9
:10272000F2D9032001B0BDE8F08300BF8907D8D5F6
:10273000DEE700BFD9F8002047F25003C2F3404261
:10274000C0F600039A5C4843B0FBF2F0D9F80010E1
:1027500046F6CC02C1F30311C0F60002515C40F210
:10276000180220FA01F140F20C00C2F200000068E9
:10277000C2F200021160FFF795FD002001B0BDE834
:10278000F083000040F2180041F20401C2F20000A0
:10279000C4F202010068096846F6DC02C1F30221B6
:1027A000C0F60002515CC8407047000040F21800BB
:1027B00041F20401C2F20000C4F20201006809689B
:1027C00046F6DC02C1F3C221C0F60002515CC840EB
:1027D00070470000002804BF012070472DE9F04138
:1027E00082B00446007841F20006C007C4F2020637
:1027F0000CD0706800F00C00042840F08180306834
:10280000800303D56068002800F0468120788007A7
:102810001BD5706810F00C0F09D0706800F00C0028
:10282000082840F087807068C00300F1838030681A
:10283000800703D52069012840F02E813068616946
:1028400020F0F80040EAC10030602078000713D47F
:10285000207840072CD4E569002D00F018817068BD
:1028600000F00C00082840F0A780012D40F0048102
:10287000012002B0BDE8F081A069002800F084804A
:102880000020C4F242200121C0F88014FFF702FAB0
:10289000054600BF706A800700F1B280FFF7FAF9C1
:1028A000401B0228F6D9032002B0BDE8F08100BF2A
:1028B000F0695FEAC00808D4F06940F08050F06128
:1028C000F06900F080500090009847F20007C4F2D1
:1028D00000073868C00549D4386840F48070386013
:1028E000FFF7D8F9054600BF3868C0053ED4FFF7AA
:1028F000D1F9401B6428F7D9032002B0BDE8F0816C
:10290000706800F00C00082803D17068C0033FF520
:1029100076AF61683068002900F00C81B1F5A02F16
:1029200000F00081B1F5803F40F01A8140F4803022
:102930001CE100BF2069002840F20000C4F24220E0
:1029400000F0888001210160FFF7A4F9054600BF6F
:10295000306880073FF572AFFFF79CF9401B0228F3
:10296000F6D9032002B0BDE8F08100BFE168306A0B
:10297000002900F09D80052900F09280012940F097
:10298000AF8040F00100B1E00020C4F242200021FD
:10299000C0F88014FFF77EF9054600BF706A800713
:1029A0007FF556AFFFF776F9401B0228F6D90320D2
:1029B00002B0BDE8F08100BF0027C4F2422700202A
:1029C0003866FFF767F9022D05460DD130688001A2
:1029D00040F1DE80FFF75EF9401B02284FF0030054
:1029E000F4D902B0BDE8F081306880014FD5FFF71F
:1029F00051F9401B02284FF00300F5D9F1E700BF61
:102A000040F21800C2F20000006844F6D351C1F24F
:102A10006201A0FB0101480A019000BF00BF0198BC
:102A2000411E002801913FF413AF00BF0198411EE1
:102A3000002801913FF40CAF00BF0198411E00280F
:102A400001913FF405AF00BF0198411E002801919C
:102A5000E4D1FDE600210160FFF71CF9054600BF47
:102A6000306880077FF5F1AEFFF714F9401B0228AC
:102A70004FF00300F4D9B4E77068216A00F48032A3
:102A80008A4209D1616A00F47010884204D10020A2
:102A900002B0BDE8F08100BF012002B0BDE8F081C6
:102AA00040F004003062306A40F001001EE000BFD8
:102AB00020F001003062306A20F004003062FFF73D
:102AC000E9F8054641F28837306A800720D5FFF7DC
:102AD000E1F8401BB8424FF00300F5D981E700BF91
:102AE00020F001003062306A20F004003062FFF70D
:102AF000D1F8054641F28837306A800708D4FFF7DD
:102B0000C9F8401BB842F7D9032002B0BDE8F081F4
:102B1000B8F1000F3FF59FAEF06920F08050F061F2
:102B200099E600BF40F480203060306840F4803087
:102B30001CE000BF20F480303060306820F480203A
:102B40003060FFF7A7F80546306880037FF55EAE7A
:102B5000FFF7A0F8401B64284FF00300F4D940E7CA
:102B600020F480303060306820F480203060FFF73F
:102B700091F80546306880033FF548AEFFF78AF8C4
:102B8000401B6428F6D9032002B0BDE8F08100BFE5
:102B9000206AB0F5803F05D17168A26821F4003148
:102BA000114371607168626A21F474111143084322
:102BB000706001203866FFF76DF8044630688001C8
:102BC0003FF565AFFFF766F8001B02284FF00300E2
:102BD000F4D906E7411E0020B0EB116F1CBF0120A5
:102BE00070474EF21002CEF2000251604EF62351B1
:102BF000CEF20001F0230B70072190601160704746
:102C0000704700007047000090F83C20012A4FF008
:102C1000020236D010B580F83D200268D2F804E0F8
:102C2000D2F808C00C682EF07003234340F2FF7402
:102C3000C4F20004A24253600ADCB2F1804F13D008
:102C400040F20043C4F200039A420DD011E000BFED
:102C500042F60043C4F201039A4205D040F6000355
:102C6000C4F200039A4204D149682CF0800319434E
:102C700091600121002280F83D1080F83C20BDE8E1
:102C80001040104670470000002804BF0120704724
:102C900010B590F83D1031B9002180F83C10044681
:102CA00000F070F82046022180F83D10016840F2E3
:102CB000FF740B68C4F2000442F6004CA142C4F257
:102CC000010C15DCB1F1804F1AD040F20042C4F281
:102CD0000002914214D0A14218DCB1F1804F1DD006
:102CE00040F20042C4F20002914217D01AE000BF45
:102CF000614505D040F60002C4F200029142EAD1DB
:102D0000826823F070031343A142E6DD614505D0DC
:102D100040F60002C4F20002914203D1026923F49A
:102D200040731343846923F08002D0F804E0C36841
:102D3000224361450A60CB62C1F828E002D14269B2
:102D4000CCF8302001224A610B69DB0703D00B6904
:102D500023F001030B6180F8462080F83E2080F8C4
:102D60003F2080F8402080F8412080F8422080F801
:102D7000432080F8442080F8452080F83D20002042
:102D800010BD000080B582B0006840F20041C4F27E
:102D9000000188421AD0B0F1804F24D141F21C00CA
:102DA000C4F202000168002241F0010101600068E4
:102DB000002100F00100019001981C20FFF7CAFAE1
:102DC0001C2002B0BDE88040FFF7B2BA41F21C00FF
:102DD000C4F20200016841F002010160006800F0E5
:102DE00002000090009802B080BD000090F83D10F5
:102DF00001291CBF01207047022180F83D100068A6
:102E000040F2FF71C4F20001884209DCB0F1804F4A
:102E100012D040F20041C4F2000188420CD012E00E
:102E200042F60041C4F20101884205D040F600019B
:102E3000C4F20001884206D1816801F00701062929
:102E400004BF00207047016841F0010101600020CB
:102E50007047000090F83D1001291CBF0120704709
:102E6000022180F83D10006840F2FF72C168C4F290
:102E70000002904241F00101C16009DCB0F1804FD5
:102E800012D040F20041C4F2000188420CD012E09E
:102E900042F60041C4F20101884205D040F600012B
:102EA000C4F20001884206D1816801F007010629B9
:102EB00004BF00207047016841F00101016000205B
:102EC0007047000090F83C20012A4FF002026CD0BD
:102ED00080B580F83D20D0F800C04FF67772DCF85E
:102EE000083023EA0202CCF808200B684F2B29DCBB
:102EF0001F2B45DD202B46D0302B44D0402B40F0FB
:102F0000AF80D1F804E0C968DCF82030DCF820207C
:102F100022F00102CCF82020DCF8182022F0F00288
:102F200042EA011123F00A0242EA0E02CCF818101C
:102F3000CCF82020DCF8081041F0470121F03001E6
:102F400028E000BF6F2B33DDB3F5005F74D0B3F51D
:102F5000805F21D0702B40F08380D1E901E3C96804
:102F6000DCF8082043EA0E0322F47F4243EA012101
:102F70001143CCF80810DCF8081041F0770109E0A3
:102F80000BB1102B6CD1DCF8081021F07001194343
:102F900041F00701CCF808100022012180F83D1013
:102FA000002180F83C10BDE880401046704700BF0B
:102FB000502B21D0602B53D1D1F804E0C968DCF844
:102FC0002030DCF8202022F01002CCF82020DCF8A1
:102FD000182022F4704242EA013123F0A00242EAB2
:102FE0000E12CCF81810CCF82020DCF8081041F0B4
:102FF000670121F01001CDE7D1F804E0C968DCF8E1
:103000002030DCF8202022F00102CCF82020DCF86F
:10301000182022F0F00242EA011123F00A0242EAEB
:103020000E02CCF81810CCF82020DCF8081041F083
:10303000570121F02001ADE7D1E901E3C968DCF8CF
:10304000082043EA0E0322F47F4243EA01211143A0
:10305000CCF80810DCF8081041F480419AE700BF72
:1030600001229AE77047000070B504460068C56801
:103070000669B10716D515F0020113D06FF00201F1
:103080000161012121778069800703D02046FFF785
:10309000E9FF05E0204600F08FF8204600F08EF8AA
:1030A00000202077700719D515F0040016D020688D
:1030B0006FF00401016102212177806910F4407FE3
:1030C00004D02046FFF7CEFF06E000BF204600F008
:1030D00073F8204600F072F800202077300717D5EB
:1030E00015F0080014D020686FF008010161042178
:1030F0002177C069800703D02046FFF7B3FF05E0C2
:10310000204600F059F8204600F058F800202077BB
:10311000F00619D515F0100016D020686FF01001D8
:10312000016108212177C06910F4407F04D0204656
:10313000FFF798FF06E000BF204600F03DF820466C
:1031400000F03CF800202077F00718BF15F00100D0
:1031500002D1300609D412E020686FF0010101614C
:10316000204600F02DF8300609D515F0800006D075
:1031700020686FF0800101612046FFF741FD700675
:1031800009D515F0400006D020686FF040010161BC
:10319000204600F023F8B00658BF70BD15F020009F
:1031A00008D021686FF0200220460A61BDE8704017
:1031B000FFF728BD70BD0000704700007047000099
:1031C0000068B0F1804F18BF704740F28800C2F22B
:1031D0000000016901310161704700007047000083
:1031E0007047000070470000B0B582B001680A68FF
:1031F000CC684B6902F02F05202D04F0200505D185
:1032000025B102B0BDE8B04001F0D4BC5FEA027C59
:103210001EBF03F0010E04F4907313EB0E0341D1B3
:10322000036BD50618D5012B16D114F0100313D05B
:10323000002201920A6801924A680192019A496942
:1032400049064BD4818DC28DC38D002B18BF91428E
:1032500040F0F48102B0B0BD13062DD514F0800308
:103260002AD090F84120212AF4D18268B2F5805FFB
:1032700003D10269002A00F06782026A531C0362CC
:1032800012784A60C28C013A1304C284E2D1C86841
:1032900020F08000C860C86840F04000C86002B0FC
:1032A000B0BD00BFD30718BF14F4807340F0D080C6
:1032B000530700F1D380D8E05206CBD514F040027A
:1032C000C8D0CA6822F04002CA60202180F84110AC
:1032D00002B0BDE8B04000F029BC00BFC16B0A6875
:1032E000526893B2002BB5D0858DAB42B2D2C28565
:1032F0008969202900F0A180016851E8031F026854
:1033000021F4807142E80313DBB1016851E8031F27
:10331000026821F4807142E8031393B1016851E817
:10332000031F026821F4807142E803134BB1016866
:1033300051E8031F026821F4807142E80313002B57
:10334000DAD1016851E8051F026821F0010142E865
:103350000513C3B3016851E8051F026821F001019C
:1033600042E805137BB3016851E8051F026821F0AC
:10337000010142E8051333B3016851E8051F0268F3
:1033800021F0010142E80513002BDAD11BE000BF58
:10339000016851E8051F026821F0400142E8051369
:1033A000DBB1016851E8051F026821F0400142E8E5
:1033B000051393B1016851E8051F026821F040012F
:1033C00042E805134BB1016851E8051F026821F07E
:1033D000400142E80513002BDAD1202180F8421089
:1033E00000210163016851E8031F026821F0100108
:1033F00042E80313DBB1016851E8031F026821F0C2
:10340000100142E8031393B1016851E8031F0268F9
:1034100021F0100142E803134BB1016851E8031F8A
:10342000026821F0100142E80313002BDAD1C16BCE
:1034300004460846FEF786FA204602214163818D44
:10344000C28D891A89B202B0BDE8B040FFF7C8BE8C
:10345000436C43F001034364530706D5BEF1000FEC
:1034600003D0436C43F002034364930706D5BEF1D7
:10347000000F03D0436C43F004034364BCF1000F1E
:1034800006D55EEA050303D0436C43F008034364AA
:10349000436C002B3FF4DEAE920605D525B1044601
:1034A00001F088FB216820464969426C01F0400127
:1034B00002F00802891800F0B98000BF016851E8E5
:1034C000031F026821F4907142E80313BBB3016843
:1034D00051E8031F026821F4907142E8031373B3AB
:1034E000016851E8031F026821F4907142E8031358
:1034F0002BB3016851E8031F026821F4907142E880
:103500000313002BDAD11AE0016851E8051F0268A5
:1035100021F0010142E80513DBB1016851E8051F04
:10352000026821F0010142E8051393B1016851E8F6
:10353000051F026821F0010142E805134BB1016843
:1035400051E8051F026821F0010142E80513002B34
:10355000DAD1016B012924D1016851E8031F026807
:1035600021F0100142E80313DBB1016851E8031FA9
:10357000026821F0100142E8031393B1016851E899
:10358000031F026821F0100142E803134BB10168E8
:1035900051E8031F026821F0100142E80313002BD9
:1035A000DAD1202180F842100021016301684969C5
:1035B000490640F1C380016851E8051F026821F007
:1035C000400142E80513DBB1016851E8051F0268BC
:1035D00021F0400142E8051393B1016851E8051F4D
:1035E000026821F0400142E805134BB1016851E83F
:1035F000051F026821F0400142E80513002BDAD1D3
:10360000C16B002900F09A8044F6A932C0F600028E
:10361000044608464A63FEF7B9F900283FF41AAE9B
:10362000E06B416B02B0BDE8B04008470446FFF7CD
:10363000D9FD0020606402B0B0BD00BF891A00BF90
:10364000026852E8032F036822F4907243E80325CE
:10365000BDB3026852E8032F036822F4907243E876
:10366000032575B3026852E8032F036822F49072B1
:1036700043E803252DB3026852E8032F036822F4C0
:10368000907243E80325002DDAD11AE0026852E86F
:10369000052F036822F0010243E80525DDB1026829
:1036A00052E8052F036822F0010243E8052595B191
:1036B000026852E8052F036822F0010243E805255D
:1036C0004DB1026852E8052F036822F0010243E879
:1036D0000525002DDAD1202280F842200022026345
:1036E000026852E8032F036822F0100243E8032522
:1036F000DDB1026852E8032F036822F0100243E8AC
:10370000032595B1026852E8032F036822F01002E6
:1037100043E803254DB1026852E8032F036822F005
:10372000100243E80325002DDAD1022289B2426358
:1037300002B0BDE8B040FFF753BD00BF02B0BDE826
:10374000B040FFF74FBD00BF026A32F8023B6FF393
:103750005F234B60026295E5002804BF012070479B
:1037600010B5044690F8410028B9002084F84000C4
:10377000204600F063F8242084F841002068D4E952
:103780000212C36823F40053C360036923F4405357
:103790001A430261D4E904231143C268194341F278
:1037A0000C639A431143C1604169A26921F44071DD
:1037B000114343F60002C4F201029042416103D07A
:1037C000FEF7E0FF02E000BFFEF7F0FFD4E90023C0
:1037D000192148439900B0FBF1F048F21F5CC5F293
:1037E000EB1CA0FB0C314FF69C734909C0F6FF732C
:1037F00001FB0300322303EB0010A0FB0C03F020BD
:1038000000EA531000EB0110C3F343110844906029
:103810001069202120F490401061506920F02A00A6
:103820005061D06840F40050D0600020606484F89B
:10383000411084F84210606310BD000070B586B07E
:1038400040F60004C4F20104006804F5405100266B
:1038500088420596CDE90366029601D006B070BD98
:1038600041F21800C4F20200016802AD41F4804147
:103870000160016801F4804101910199016841F002
:10388000040101600068294600F0040001900198DD
:103890004FF4007002900220039003200590204610
:1038A000FEF7E4F84FF48060CDE9020601200490B1
:1038B00020462946FEF7DAF8252001210022FEF7EE
:1038C00049FD2520FEF734FD06B070BD90F842306A
:1038D000202B07D100294FF0010318BF002A05D182
:1038E0001846704702231846704700BF0023036341
:1038F000816222218285C285436480F84210016979
:10390000006819B1C16841F48071C160416941F03A
:1039100001014161C16841F02001C1601846704752
:10392000006843F60001C4F20101884218BF7047E5
:10393000B0B540F28804C2F20004207B0D2801D00B
:103940000A2811D1A07AD8B104F1340100250D5410
:1039500004F154001F22FCF732FE012084F873505A
:10396000E072A5720CE000BFA17A1E2906D84A1C9D
:103970002144A27281F8340002E000BF0020A0724E
:1039800040F2106004F10C01C2F200000122BDE817
:10399000B040FFF79BBF00002DE9F04381B0044623
:1039A00090F84100202809D100294FF0010018BFEC
:1039B000002A07D101B0BDE8F08300BF022001B0AA
:1039C000BDE8F0830020606421201D460E4684F887
:1039D00041001746FEF75EF9A784E784A168814697
:1039E000B1F5805F02D1206900285DD03746002004
:1039F000E28C2168002A5DD06A1C24D0002D4AD0B8
:103A0000804600BF0868000608D4FEF743F9A0EB23
:103A10000900A8427AD82168C868F3E717B117F8F7
:103A2000010B04E038F8020B00276FF35F204860B9
:103A3000E08C0138E084E08C0028E3D13AE000BF5C
:103A40000A68120609D40A68120606D40A68120621
:103A50005CBF0A685FEA0262F2D51FB117F8012B5A
:103A600005E000BF30F8022B00276FF35F224A60A9
:103A7000E28C013AE284E28C002AE4D11AE000BF31
:103A800030F8022B00276FF35F224A60E28C013A84
:103A9000E284E28C72B10A68120635D5002FEFD0AD
:103AA00017F8012BF1E700BF00273046E28C2168B0
:103AB000002AA1D1086840061ED42DB3681C14D179
:103AC000086840062AD40868400627D408684006DB
:103AD00024D4086840064FF00000F1D50DE000BF87
:103AE0002068C1680068400618D4FEF7D3F8A0EB40
:103AF0000900A842F4D909E00020202184F84110EF
:103B000001B0BDE8F08300BFFEF7C4F80320202118
:103B100084F8411001B0BDE8F08300BF00202021EF
:103B200084F8411001B0BDE8F08300007047000048
:103B3000FEE7000070B50368044653F8140F400711
:103B400011D40E46481C29D086BB00BF186840051A
:103B500027D4FEF79FF8236853F8140F400737D592
:103B600018684007F2D5002070BD00BF18684007F4
:103B7000F9D41868400514D418684007F3D41868BD
:103B800040050ED418684007EDD41868400508D4E5
:103B9000186840074FF0000048BF70BD1868400526
:103BA000E4D56FF480601860042012E0154603E04D
:103BB00053F8140F4007D6D418684005F1D4FEF727
:103BC00069F8401B2368B042F2D958694007EFD426
:103BD000202000212022216384F83D2084F83E101B
:103BE000226C10432064012084F83C1070BD00005A
:103BF0002DE9F041054600681E46144601F47F0297
:103C000001338FB242D0DDF81880B2F5803F40F02A
:103C1000878040693840C01BB0FA80F04009844278
:103C200040F0C8804EB924E040693840C01BB0FA6B
:103C300080F04009844240F0BD80FEF72BF8A0EBF5
:103C400008012868B142EFD941693940C91BB1FA6E
:103C500081F149098C42E7D19BE000BF40693840BF
:103C6000C01BB0FA80F0400984424FF0000040F0E1
:103C7000A280FEF70FF8286841693940C91BB1FAE4
:103C800081F149098C42E9D183E000BFB2F5803F60
:103C900024D100BF41693940C91BB1FA81F14909FA
:103CA0008C4240F0878041693940C91BB1FA81F1EB
:103CB00049098C4240F07E8041693940C91BB1FA04
:103CC00081F149098C4275D141693940C91BB1FA6A
:103CD00081F149098C42DDD06CE000BF8169394037
:103CE000C91BB1FA81F149098C4263D1816939401C
:103CF000C91BB1FA81F149098C425BD18169394014
:103D0000C91BB1FA81F149098C4253D1816939400B
:103D1000C91BB1FA81F149098C42DFD04AE000BFEA
:103D200080693840C01BB0FA80F04009844241D11C
:103D300046B923E080693840C01BB0FA80F04009E2
:103D4000844237D1FDF7A6FFA0EB08012868B142F5
:103D5000F0D981693940C91BB1FA81F149098C4216
:103D6000E8D116E080693840C01BB0FA80F0400905
:103D700084424FF0000018BFBDE8F081FDF78AFFD4
:103D8000286881693940C91BB1FA81F149098C421F
:103D9000E8D100202021286385F83D1085F83E00F9
:103DA000296C41F02001296485F83C000120BDE820
:103DB000F08100BF0020BDE8F0810000F0B581B0C7
:103DC000044600681D4643698FB203EA0701B94201
:103DD00002D1002001B0F0BD4169164601323CD04D
:103DE000490512D47EB300BFFDF754FF411B206884
:103DF000B14203D941693940B9422BD141693940B7
:103E0000B942E6D041694905EED5016841F4007137
:103E100001606FF480614161042000212022216350
:103E200084F83D2084F83E10226C1043206484F80E
:103E30003C10012001B0F0BD41693940B942C8D001
:103E400041694905E1D4FDF725FF20684169394002
:103E5000B942F1D02020E0E741694905D5D4416954
:103E60003940B942B5D041694905CED4416939409C
:103E7000B942AED041694905C7D441693940B94218
:103E8000A7D041694905C0D441693940B942E3D15D
:103E90009FE7000070B50368044653F8140F00064E
:103EA00011D40E46481C29D086BB00BF18684005B7
:103EB00027D4FDF7EFFE236853F8140F000637D51B
:103EC00018680006F2D5002070BD00BF1868000613
:103ED000F9D41868400514D418680006F3D418689B
:103EE00040050ED418680006EDD41868400508D4C3
:103EF000186800064FF0000048BF70BD1868400504
:103F0000E4D56FF480601860042012E0154603E0E9
:103F100053F8140F0006D6D418684005F1D4FDF705
:103F2000B9FE401B2368B042F2D958690006EFD4AD
:103F3000202000212022216384F83D2084F83E10B7
:103F4000226C10432064012084F83C1070BD0000F6
:103F500010B584B040F2FC4042F20041C2F20000D1
:103F6000C4F20101002201244FF46023047302759E
:103F7000C361C0E9001282600461FDF763FA0028A2
:103F800018BFFDF7B5F90720CDE90104039040F211
:103F9000FC40C2F2000001A9FDF7B0F9002818BFEB
:103FA000FDF7A6F904B010BDF0B585B0002641F2CA
:103FB0001800CDE90366CDE90166C4F2020001688C
:103FC00040F6004441F0200101600168C4F20104A0
:103FD00001F02001009100990168002241F00401E4
:103FE0000160016801F0040100910099016841F04D
:103FF00008010160006843F6034100F008000090EA
:1040000000982046FDF740FE7F2001ADCDE9010676
:104010000127A4F5806029460397FDF727FD40F6A8
:104020000340CDE90107022004902046294603966B
:10403000FDF71CFD4FF4405001901120CDE9020620
:104040000320049020462946FDF710FD05B0F0BD81
:1040500080B540F22C5045F20041C2F20000C4F29B
:10406000000141F6802200234FF4804CC0F206028A
:1040700080E80E00C0E9033CC0E90533C0E907331E
:10408000FDF70EFE002808BF80BDBDE88040FDF7AB
:104090002FB9000080B586B040F280500021C2F2F6
:1040A00000004FF0804241F61F434FF0090C05918C
:1040B000CDE90311CDE90011C0E90023C0E9021CDC
:1040C00001618161FEF7E0FD002818BFFDF710F9DE
:1040D0004FF48050029040F28050C2F2000002A9DA
:1040E000FEF7F0FE002818BFFDF702F940F28050FD
:1040F000C2F200006946FEF787FD002818BFFDF7F1
:10410000F7F806B080BD000080B586B040F2C85018
:1041100040F200420021C2F20000C4F20002472334
:104120004FF6FF7C0591CDE90311CDE90011C0E9FF
:104130000023C0E9021C01618161FEF7A5FD002892
:1041400018BFFDF7D5F84FF48050029040F2C850E8
:10415000C2F2000002A9FEF7B5FE002818BFFDF765
:10416000C7F840F2C850C2F200006946FEF74CFDA5
:10417000002818BFFDF7BCF806B080BD80B540F23E
:10418000106043F60001C2F20000C4F201010023F6
:104190004FF00C0C4FF4E13280E80E00C0E903331D
:1041A000C0E905C3C361FFF7D7FA002808BF80BD87
:1041B000BDE88040FDF79CB8FEE70000FEE7000088
:1041C00070470000B0B584B00446002001E000BF95
:1041D0000430215C202901D0092915D121184A7801
:1041E000202A02D0092A40F0B3808A78202A02D0FF
:1041F000092A40F0B380CA78202AE9D0092AE7D0FA
:10420000CD1CA54203D10AE02518A54207D02846B7
:10421000FCF700F9421C20462946FCF75FF92046CE
:10422000FCF7F8F801283BDB20441322851E4FF0F1
:10423000010CC0F280020023284610F8011F093942
:1042400017292DD80CFA01F1114229D0A042037090
:1042500026D928780938172822D80CFA00F01042FD
:104260001ED0A5422B701BD9284610F8011D093914
:10427000172915D80CFA01F1114211D0A042037090
:104280000ED915F8020C0938172809D80CFA00F0D5
:10429000104205D005F8023DA542A5F10205CBD894
:1042A0002178002900F0D281A01C00BFA1F1610299
:1042B000D2B2192A9CBF203900F8021C10F8011C48
:1042C000E9B1A1F16102D2B2192A9CBF203900F8EC
:1042D000011C017899B1A1F16102D2B2192A9CBFE7
:1042E00020390170417851B1A1F16102D2B2192A8D
:1042F0009CBF20394170817804300029D6D12078C4
:10430000002800F0A381D2A12046FCF783F958B31E
:10431000D1A12046FCF77EF900286DD0CFA1204620
:10432000FCF778F9002800F0AF80CEA12046FCF71A
:1043300071F9002800F02A8140F21064C2F20004F2
:1043400047F28901C0F600012046052204E100BFC2
:104350004D1CA5427FF45BAF61E700BF8D1CA542F9
:104360007FF455AF5BE700BF40F28805C2F200055D
:10437000E878002840F0E6802879002840F0E280C4
:104380006879002840F0DE80012040F60044287063
:104390000020C4F20104287220464FF4006101227B
:1043A000FDF772FC9620FDF74DFB20464FF40061AF
:1043B0000022FDF769FC9620FDF744FB20464FF4F0
:1043C00000610122FDF760FC9620FDF73BFB2046D3
:1043D0004FF400610022FDF757FC9620FDF732FBF9
:1043E00040F21064C2F2000447F28F01C0F60001EF
:1043F00020460A228BE000BF40F28805C2F2000589
:10440000E878002840F09E802879002840F09A80C3
:104410006879002840F09680012040F600446870DA
:104420000020C4F20104287220464FF400610122EA
:10443000FDF72AFC9620FDF705FB20464FF40061AE
:104440000022FDF721FC9620FDF7FCFA20464FF4F0
:1044500000610122FDF718FC9620FDF7F3FA2046D3
:104460004FF400610022FDF70FFC9620FDF7EAFAF9
:1044700040F21064C2F2000447F29E01C0F600014F
:104480002046092243E000BF40F28805C2F2000541
:10449000E878002856D12879002853D16879002877
:1044A00050D1012040F60044A8700020C4F201045D
:1044B000287220464FF400610122FDF7E5FB9620AB
:1044C000FDF7C0FA20464FF400610022FDF7DCFB47
:1044D0009620FDF7B7FA20464FF400610122FDF760
:1044E000D3FB9620FDF7AEFA20464FF40061002280
:1044F000FDF7CAFB9620FDF7A5FA40F21064C2F260
:10450000000447F29A01C0F6000120460D22642300
:10451000FFF742FA47F26201C0F60001204602228C
:104520006423FFF739FAE97840F20000C2F2000094
:10453000FF22426001B305F118010A68FF2A00F06A
:10454000858064E040F21064C2F2000447F2A801E2
:10455000C0F60001204604226423FFF71DFA47F24B
:104560006201C0F6000120460222642304B0BDE8C7
:10457000B040FFF711BA00BF2979002940D005F1FA
:104580001C010A68FF2A61D041E000BF40F28800A8
:10459000C2F20000002101608180817140F600407C
:1045A000C4F2010040F203410122FDF76DFB40F22D
:1045B0001064C2F2000447F26501C0F60001204613
:1045C00006226423FFF7E8F947F26205C0F600050A
:1045D0002046294602226423FFF7DEF940F200005C
:1045E000C2F20000FF21416047F28401C0F60001E1
:1045F000204604226423FFF7CFF920462946B3E77B
:10460000697919B305F120010A68FF2A1ED047F223
:10461000AD016C464260C0F600012046FBF7FAFD92
:104620002046FBF7F7FE40F21065C2F2000582B2A9
:10463000284621466423FFF7AFF947F26201C0F62E
:104640000001284602226423FFF7A6F904B0B0BD9A
:104650005741534800000000445259005741534805
:104660004452590053544F500000000080B5024698
:10467000002840F2FC00C2F200004FF4806118BF35
:10468000FF22FBF76DFF80BD40F28002C2F2000204
:1046900050809180704700002DE9F04182B040F2D7
:1046A0002C50C2F200007821012244F62063FDF76D
:1046B000A9FB4FF0000418B1204602B0BDE8F0811C
:1046C00040F22C554FF42E40C2F20005ADF8060022
:1046D0000A260DF106022846782102230096FDF7EE
:1046E0009BFC4FF400580DF1060228467821022366
:1046F000ADF806800096FDF78FFC4FF480570DF162
:104700000602284678210223ADF806700096FDF7D0
:1047100083FC4FF43040ADF806000DF10602284648
:10472000782102230096FDF777FC4FF44840ADF85E
:1047300006000DF106022846782102230096FDF7B7
:104740006BFC0DF10602284678210223ADF80640E5
:104750000096FDF761FC0DF1060228467821022340
:10476000ADF806700096FDF757FC4FF48040ADF8A9
:1047700006000DF106022846782102230096FDF777
:104780004BFC4FF40140ADF806000DF1060228463F
:10479000782102230096FDF73FFC4FF47F40ADF8EF
:1047A00006000DF106022846782102230096FDF747
:1047B00033FC4FF42140ADF806000DF10602284607
:1047C000782102230096FDF727FC4FF42640ADF830
:1047D00006000DF106022846782102230096FDF717
:1047E0001BFC4FF42840ADF806000DF106022846E8
:1047F000782102230096FDF70FFC4FF47C50ADF8B2
:1048000006000DF106022846782102230096FDF7E6
:1048100003FC4FF42440ADF806000DF106022846D3
:10482000782102230096FDF7F7FB4FF45340ADF8D3
:1048300006000DF106022846782102230096FDF7B6
:10484000EBFB0DF10602284678210223ADF8064065
:104850000096FDF7E1FB4FF45540ADF806000DF171
:1048600006022846782102230096FDF7D5FB4FF477
:104870007040ADF806000DF10602284678210223AB
:104880000096FDF7C9FB4FF45940ADF806000DF155
:1048900006022846782102230096FDF7BDFB4FF45F
:1048A0000850ADF806000DF10602284678210223D3
:1048B0000096FDF7B1FB4FF45A40ADF806000DF13C
:1048C00006022846782102230096FDF7A5FB4FF447
:1048D0009050ADF806000DF106022846782102231B
:1048E0000096FDF799FB4FF45B40ADF806000DF123
:1048F00006022846782102230096FDF78DFB0DF174
:104900000602284678210223ADF806800096FDF7BE
:1049100083FB4FF40D40ADF806000DF1060228466A
:10492000782102230096FDF777FB4FF4A050ADF8F5
:1049300006000DF106022846782102230096FDF7B5
:104940006BFB4FF42F40ADF806000DF10602284630
:10495000782102230096FDF75FFB4FF43850ADF845
:1049600006000DF106022846782102230096FDF785
:1049700053FB40F2FC00C2F200004FF48061FBF7F1
:10498000F7FD00F0B5F840F28000C2F20000C0F878
:1049900002400124204602B0BDE8F0812DE9F04F2D
:1049A00089B040F28005C2F200056B8891F8008062
:1049B00008EB03077F2F05D89C46AB884E78F71885
:1049C0003F2F03D9002009B0BDE8F08F002E0090E2
:1049D00066D02D782038B5FA85F77C09B2FA82F7CF
:1049E000029078090790002D18BF01254868121B16
:1049F000B2FA82F2019000275009444608950690C9
:104A0000CDE9033104E000BF00240137B74247D2AB
:104A1000002CF9D0DA1995B23F2DF6D80298019BF7
:104A2000704303EB400030F817A002F007000123A9
:104A300003FA00F54FF4607091F8008000EA021B61
:104A40006FEA050E0022059703E000BF01324245E0
:104A500020D20CEB02061FFA86F9B9F17F0FF5D8C8
:104A600046EA0B0640F2FC000AFA02F1B6B2C2F2C4
:104A700000000904835D0699DDE9077458BF87EAE1
:104A8000040103EA0E04002918BF43EA0504845513
:104A9000DCE700BF0499039B4E78059F4446B4E7CA
:104AA0005FFA88F040F280016044C2F20001488061
:104AB0005DF8240BBDE8F08F0378002B04BF0020C5
:104AC000704770B514460D46461C00BFD8B2294643
:104AD0002246FFF763FF16F8011C884204D116F83E
:104AE000013B002BF2D10021BDE870400846704721
:104AF0002DE9F04FC1B00DF1040B40F22C560BF133
:104B000001094FF000086FF07F050A24C2F2000689
:104B10004FF0000A40F2FC008035C2F200002F186E
:104B20004AF0B0008DF80500304678215A4602233D
:104B30008DF804800094FDF76FFA304678215A46CC
:104B40000223ADF804800094FDF766FA4FF480501C
:104B5000ADF80400304678215A4602230094FDF750
:104B60005BFA40208DF80400484639468022FBF766
:104B700070FC304678215A4681230094FDF74CFAA8
:104B8000B5F5607F0AF1010AC4D141B0BDE8F08FEC
:104B900070470000FDF764BB7047000040F2805092
:104BA000C2F20000FEF760BA406A0021C185C184EC
:104BB000FEF718BB81B090F84210222921D18368FA
:104BC0000246B3F5805F09D152F8281F52F8183C0D
:104BD000002B63D003685B680AE000BF52F8281F0F
:104BE00013B90369002BF5D003685B6803F07F03FA
:104BF0000B70116801311160C18D01390A04C18542
:104C000002D001B0704700BF0168CA6822F02002DC
:104C1000CA60CA6822F48072CA604A6922F001023E
:104C20004A61202180F8421000214163026B012A71
:104C30003CD10163016851E8031F026821F01001B3
:104C400042E80313DBB1016851E8031F026821F059
:104C5000100142E8031393B1016851E8031F026891
:104C600021F0100142E803134BB1016851E8031F22
:104C7000026821F0100142E80313002BDAD1016829
:104C80000A68D20606D5002200920A680092496896
:104C900000910099818D01B0FEF7A2BA02685268B6
:104CA0006FF35F2221F8022B8162A5E701B0FEF7C6
:104CB00037BE000040F21060C2F20000FEF794BA66
:104CC000FEE7000096B0FDF7D9FA00240120CDE9F7
:104CD0001144CDE90F440C9010904FF4E0104FF4C4
:104CE0008031022515900CA80694CDE90444CDE945
:104CF0000D14CDE91351FDF76DFD28B1EFF31080D0
:104D000072B600BFFEE700BF0F20CDE907054FF4E4
:104D10008060CDE90A0407A802210994FDF754FC3C
:104D200020B1EFF3108072B6FEE700BF02200390BF
:104D30004FF40040059003A8FDF7C4FB20B1EFF34A
:104D4000108072B6FEE700BF40F60049C4F20109C8
:104D5000FFF72AF9FFF77CF9FFF79CF9FFF70EFA46
:104D6000FFF7F6F8FFF7D0F940F28050C2F20000EA
:104D7000FEF770F840F2C850C2F20000FEF736F8B5
:104D8000484640F203410122FCF77EFF48464FF4BB
:104D9000006100224FF0000BFCF776FFFFF77CFC70
:104DA0000020FFF763FCFFF7A3FE0020FFF75EFC87
:104DB00000200021FFF768FC40F21007C2F2000754
:104DC0000FF6F85039460122FFF776FEFFF790FE06
:104DD00040F2880840F21066C2F20008C2F20006F3
:104DE00008F10C013046012288F80AB088F80BB0AF
:104DF000FEF76CFD47F2840AC0F6000A30465146C1
:104E000004226423FEF7C8FD47F26204C0F60004E2
:104E10003046214602226423FEF7BEFDB9E000BF02
:104E200048464FF48061012288F805B088F802B046
:104E3000FCF72AFF47F265013046C0F60001062262
:104E40006423FEF7A9FD3046214602226423FEF7C3
:104E5000A3FD48464FF400610122C5F804B0FCF7F9
:104E600013FF9620FCF7EEFD48464FF40061002248
:104E7000FCF70AFF9620FCF7E5FD48464FF4006179
:104E80000122FCF701FF9620FCF7DCFD48464FF4B9
:104E900000610022FCF7F8FE9620FCF7D3FD48469F
:104EA0004FF400610122FCF7EFFE9620FCF7CAFDEB
:104EB00048464FF400610022FCF7E6FE9620FCF71E
:104EC000C1FD47F27B013046C0F600010822642391
:104ED000FEF762FD3046214602226423FEF75CFDA8
:104EE0003046514604226423FEF756FD30462146E3
:104EF00002226423FEF750FDFF20686098F80850F6
:104F00000020FFF7B3FB00200021FFF7BDFB002DC1
:104F100000F0CA810FF6B04039460122FFF7CCFD00
:104F200000201421FFF7B0FB98F807000FF6A4410A
:104F300000280FF6A84008BF084639460122FFF7AF
:104F4000BBFD00202321FFF79FFB98F807000FF619
:104F5000944101280FF6944008BF084639460122C3
:104F6000FFF7AAFD002032213225FFF78DFB98F8CC
:104F700007000FF6804102280FF6804008BF084660
:104F800039460122FFF798FDFFF7B2FD2846FCF7EE
:104F900059FD98F80B0028B108F1540088F80BB0BF
:104FA000FFF710F940F2FC45C2F200052846FCF775
:104FB00061FC28460A21FCF725FB2846FCF73EFA4F
:104FC00081B21322514340F20122C0F22002A1FB20
:104FD0000212A8F80E00012040F2000500EB52007A
:104FE000C2F200052870D8F81000D8F82C10401A2A
:104FF00043F69821884211D3D8F810004FF480511D
:10500000C8F82C004846FBF7EDFFC8F824004846D6
:105010004FF40051FBF7E6FFC8F82800D8F8240049
:105020000021C4F2702101F06AFA002840F080806B
:1050300048460221012288F804B088F801B0FCF744
:1050400023FE48464FF400610122FCF71DFE962026
:10505000FCF7F8FC48464FF400610022FCF714FE10
:105060009620FCF7EFFC48464FF400610122FCF764
:105070000BFE9620FCF7E6FC48464FF40061002248
:10508000FCF702FE9620FCF7DDFC48464FF4006179
:105090000122FCF7F9FD9620FCF7D4FC48464FF4BA
:1050A00000610022FCF7F0FD9620FCF7CBFC48469F
:1050B0004FF400610122FCF7E7FD9620FCF7C2FCEB
:1050C00048464FF400610022FCF7DEFD9620FCF715
:1050D000B9FC48464FF400610122FCF7D5FD96204B
:1050E000FCF7B0FC48464FF400610022FCF7CCFD11
:1050F0009620FCF7A7FC47F289013046C0F6000174
:1051000005226423FEF748FC304621460222642330
:10511000FEF742FC3046514604226423FEF73CFC75
:105120003046214602226423FEF736FCFF206860E9
:10513000D8F828000021C4F2702101F0E0F900281D
:1051400040F0818048464FF48061012288F805B024
:1051500088F802B0FCF798FD48464FF40061012240
:10516000FCF792FD9620FCF76DFC48464FF4006179
:105170000022FCF789FD9620FCF764FC48464FF4BA
:1051800000610122FCF780FD9620FCF75BFC48469D
:105190004FF400610022FCF777FD9620FCF752FCEB
:1051A00048464FF400610122FCF76EFD9620FCF7A3
:1051B00049FC48464FF400610022FCF765FD96204B
:1051C000FCF740FC48464FF400610122FCF75CFD0F
:1051D0009620FCF737FC48464FF400610022FCF7AC
:1051E00053FD9620FCF72EFC48464FF40061012247
:1051F000FCF74AFD9620FCF725FC48464FF4006179
:105200000022FCF741FD9620FCF71CFC47F28901C7
:105210003046C0F6000105226423FEF7BDFB304690
:10522000214602226423FEF7B7FB30465146042292
:105230006423FEF7B1FB3046214602226423FEF7C9
:10524000ABFBFF206860D346A9F5806A5046042175
:10525000FCF714FD054690B998F8090078B998F85C
:10526000080060B9012088F8080000BF50460421FA
:10527000FCF704FD0028F9D01420FCF7E3FBB5FA95
:1052800085F0400988F8090050460821FCF7F6FC33
:1052900040F20005C2F20005B0B198F808000028FD
:1052A00040F0F68194E200BF98F80300002849D04E
:1052B00040F25865D8F81820C2F2000528460FF6CB
:1052C0004411FAF7A7FF61E098F80000002800F009
:1052D0000D8150461021FCF7D1FC002840F00681DA
:1052E00098F8030000284FF0000088F800000AD169
:1052F000012088F803003C20C8F818004846012126
:105300000022FCF7C1FC47F2A8013046C0F60001BC
:1053100004226423FEF740FB304621460222642328
:10532000FEF73AFB98F8030000284FF0FF00686092
:1053300000F0B28008F118000268FF2A40F0BE8039
:10534000D4E000BF98F8000040F25865C2F20005B2
:1053500080B144F24140C0F25900C5F8070044F260
:10536000571045F23A21C4F65300C4F24511C5E97D
:1053700000010BE04520288144F23A6044F25711C5
:10538000C4F25250C4F65301C5E90010284639460C
:105390000122FFF791FB00201421FFF775F998F81F
:1053A00004005646A0B1D8F82400D8F81CA001F09B
:1053B0005FF803460F4628460FF654015246CDE9E2
:1053C000003740F21007C2F20007FAF723FF14E09B
:1053D000D8F8240098F8015001F04AF8002D40F266
:1053E0005865C2F2000502460B4628460CBF0FF670
:1053F00040010FF62C01FAF70DFF2846394601222D
:10540000FFF75AFB00202821FFF73EF998F8050026
:1054100000B3D8F8280098F80670D8F8205001F0AA
:1054200027F840F2586AC2F2000A0346012F0F46DD
:1054300050462A460CBF0FF618010FF60401CDE9BD
:105440000037FAF7E7FE40F210070A255046C2F28D
:1054500000071AE0D8F8280098F80250BA4601F080
:1054600007F840F25867C2F2000702460B4638467A
:10547000002D06BF47F26C01C0F600010FF2E0718B
:10548000FAF7C8FE0A2538465746B24640F210667B
:10549000C2F2000674E500BF98F8040030B108F1CC
:1054A0001C000268FF2A09D120E000BF98F805001F
:1054B000E0B108F120000268FF2A17D047F2AD01E1
:1054C0000CA8C0F600016A60FAF7A4FE0CA8FAF76F
:1054D000A1FF82B230460CA96423FEF75DFA304684
:1054E000214602226423FEF757FA00BF98F8010014
:1054F00000285FD050462021FCF7C0FB002859D17E
:1055000098F8040000284FF0000088F801000AD144
:10551000012088F804002D20C8F81C00484602210C
:105520000022FCF7B1FB47F2A8013046C0F60001AB
:1055300004226423FEF730FA304621460222642317
:10554000FEF72AFA98F8030000284FF0FF00686081
:1055500006D008F118000268FF2A13D12AE000BF24
:1055600098F8040030B108F11C000268FF2A09D144
:1055700020E000BF98F80500E0B108F120000268C3
:10558000FF2A17D047F2AD010CA8C0F600016A60EF
:10559000FAF740FE0CA8FAF73DFF82B230460CA99C
:1055A0006423FEF7F9F93046214602226423FEF710
:1055B000F3F900BF98F80200002861D0504640215E
:1055C000FCF75CFB00285BD198F8050000284FF041
:1055D000000088F802000CD140F20110A8F8050084
:1055E0003C20C8F8200048464FF480610022FCF7B8
:1055F0004BFB47F2A8013046C0F6000104226423A9
:10560000FEF7CAF93046214602226423FEF7C4F9A8
:1056100098F8030000284FF0FF00686006D008F1FA
:1056200018000268FF2A13D12AE000BF98F804008E
:1056300030B108F11C000268FF2A09D120E000BF48
:1056400098F80500E0B108F120000268FF2A17D0A1
:1056500047F2AD010CA8C0F600016A60FAF7DAFD66
:105660000CA8FAF7D7FE82B230460CA96423FEF7E5
:1056700093F93046214602226423FEF78DF900BFDC
:105680001420FCF7DFF998F80800002800F0A0804B
:1056900050460121FCF7F2FA48B998F807000028B3
:1056A0001CBF013888F80700C820FCF7CBF950462A
:1056B0000221FCF7E3FA48B998F8070001289CBFDB
:1056C000013088F80700C820FCF7BCF950460421D7
:1056D000FCF7D4FA002870D150460421FCF7CEFA2A
:1056E0000028F9D098F80700022817D001280BD01D
:1056F00000285CD1012047F28F0188F80000304675
:10570000C0F600010A2212E0012047F29E0188F84B
:1057100001003046C0F60001092208E0012047F2EE
:105720009A0188F802003046C0F600010D22642379
:10573000FEF732F93046214602226423FEF72CF9A7
:1057400098F8030000284FF0FF00686006D008F1C9
:1057500018000268FF2A13D129E000BF98F804005E
:1057600030B108F11C000268FF2A20D008E000BF19
:1057700098F80500D8B108F120000268FF2A16D079
:1057800047F2AD010CA8C0F600016A60FAF742FDCD
:105790000CA8FAF73FFE82B230460CA96423FEF74C
:1057A000FBF83046214602226423FEF7F5F800207C
:1057B00088F808001420FCF745F950460821FCF74A
:1057C0005DFA28B9002088F808003220FCF73AF981
:1057D000D8F81010D8E905202B788A1A4FF47A717E
:1057E000B1FBF3F398F803109A4203D2DA464FF074
:1057F000000B8FE0D8F810200029DA46C8F81420F2
:105800004CD04FF0000B00281CBF0138C8F818001E
:1058100098F8042032B1D8F81C30002B1CBF013B93
:10582000C8F81C3098F8053033B1D8F82070002F34
:105830001CBF013FC8F8207042EA01071F431DD07A
:10584000D8F81070D8F830507F1BB7F57A7F1BD38B
:10585000D8F8107040F20005C8F83070C2F20005A8
:105860004FF0FF076F6009B340F2100708F118020C
:10587000C2F200071268FF2A24D14BE040F2100761
:10588000C2F2000746E000BF40F2100740F20005F8
:10589000C2F20007C2F200053CE000BF4FF0000B6F
:1058A00098F80420002AB6D1BCE700BF40F21007E8
:1058B000002AC2F2000700F0778108F11C0212688A
:1058C000FF2A27D05646BA460CAF47F2AD013846FC
:1058D000C0F600016A60FAF79DFC3846FAF79AFDB7
:1058E00082B240F21060C2F2000039465746B2461A
:1058F00040F210666423C2F20006FEF74DF830460F
:10590000214602226423FEF747F898F80310D8F8DE
:10591000180000BF00296ED000286CD14846012134
:10592000012288F803B088F800B0FCF7ADF947F21F
:1059300065013046C0F6000106226423FEF72CF80C
:105940003046214602226423FEF726F848464FF4EB
:1059500000610122C5F804B0FCF796F99620FCF727
:1059600071F848464FF400610022FCF78DF996204B
:10597000FCF768F848464FF400610122FCF784F90F
:105980009620FCF75FF848464FF400610022FCF7D0
:105990007BF99620FCF756F848464FF40061012247
:1059A000FCF772F99620FCF74DF848464FF4006179
:1059B0000022FCF769F99620FCF744F847F27B01D6
:1059C0003046C0F6000108226423FDF7E5FF3046AB
:1059D000214602226423FDF7DFFF304651460422B0
:1059E0006423FDF7D9FF3046214602226423FDF7E8
:1059F000D3FFFF20686098F80400002870D0D8F822
:105A00001C0000286CD148460221012288F804B00D
:105A100088F801B0FCF738F947F265013046C0F666
:105A2000000106226423FDF7B7FF3046214602221B
:105A30006423FDF7B1FF48464FF400610122C5F829
:105A400004B0FCF721F99620FBF7FCFF48464FF421
:105A500000610022FCF718F99620FBF7F3FF484697
:105A60004FF400610122FCF70FF99620FBF7EAFFE3
:105A700048464FF400610022FCF706F99620FBF738
:105A8000E1FF48464FF400610122FCF7FDF8962043
:105A9000FBF7D8FF48464FF400610022FCF7F4F80A
:105AA0009620FBF7CFFF47F27B013046C0F600019E
:105AB00008226423FDF770FF30462146022264234A
:105AC000FDF76AFF3046514604226423FDF764FF68
:105AD0003046214602226423FDF75EFFFF20686006
